{
  "contractName": "Payment",
  "abi": [
    {
      "inputs": [
        {
          "internalType": "address",
          "name": "_owner",
          "type": "address"
        },
        {
          "internalType": "address",
          "name": "_daiToken",
          "type": "address"
        }
      ],
      "stateMutability": "nonpayable",
      "type": "constructor"
    },
    {
      "anonymous": false,
      "inputs": [
        {
          "indexed": false,
          "internalType": "address",
          "name": "customer",
          "type": "address"
        },
        {
          "indexed": false,
          "internalType": "uint256",
          "name": "amount",
          "type": "uint256"
        },
        {
          "indexed": false,
          "internalType": "string",
          "name": "paymentId",
          "type": "string"
        },
        {
          "indexed": false,
          "internalType": "uint256",
          "name": "date",
          "type": "uint256"
        }
      ],
      "name": "PaymentDone",
      "type": "event"
    },
    {
      "inputs": [],
      "name": "daiToken",
      "outputs": [
        {
          "internalType": "contract IERC20",
          "name": "",
          "type": "address"
        }
      ],
      "stateMutability": "view",
      "type": "function",
      "constant": true
    },
    {
      "inputs": [],
      "name": "owner",
      "outputs": [
        {
          "internalType": "address",
          "name": "",
          "type": "address"
        }
      ],
      "stateMutability": "view",
      "type": "function",
      "constant": true
    },
    {
      "inputs": [
        {
          "internalType": "uint256",
          "name": "amount",
          "type": "uint256"
        },
        {
          "internalType": "string",
          "name": "paymentID",
          "type": "string"
        }
      ],
      "name": "pay",
      "outputs": [],
      "stateMutability": "nonpayable",
      "type": "function"
    }
  ],
  "bytecode": "0x608060405234801561001057600080fd5b506040516108e63803806108e6833981810160405281019061003291906100cf565b816000806101000a81548173ffffffffffffffffffffffffffffffffffffffff021916908373ffffffffffffffffffffffffffffffffffffffff16021790555080600160006101000a81548173ffffffffffffffffffffffffffffffffffffffff021916908373ffffffffffffffffffffffffffffffffffffffff1602179055505050610154565b6000815190506100c98161013d565b92915050565b600080604083850312156100e257600080fd5b60006100f0858286016100ba565b9250506020610101858286016100ba565b9150509250929050565b60006101168261011d565b9050919050565b600073ffffffffffffffffffffffffffffffffffffffff82169050919050565b6101468161010b565b811461015157600080fd5b50565b610783806101636000396000f3fe608060405234801561001057600080fd5b50600436106100415760003560e01c8063154fbbc4146100465780638da5cb5b14610062578063be22f54614610080575b600080fd5b610060600480360381019061005b91906103e1565b61009e565b005b61006a61029e565b60405161007791906104db565b60405180910390f35b6100886102c2565b6040516100959190610579565b60405180910390f35b81600160009054906101000a900473ffffffffffffffffffffffffffffffffffffffff1673ffffffffffffffffffffffffffffffffffffffff166370a08231336040518263ffffffff1660e01b81526004016100fa91906104db565b60206040518083038186803b15801561011257600080fd5b505afa158015610126573d6000803e3d6000fd5b505050506040513d601f19601f8201168201806040525081019061014a91906103b8565b101561018b576040517f08c379a000000000000000000000000000000000000000000000000000000000815260040161018290610594565b60405180910390fd5b600160009054906101000a900473ffffffffffffffffffffffffffffffffffffffff1673ffffffffffffffffffffffffffffffffffffffff166323b872dd3360008054906101000a900473ffffffffffffffffffffffffffffffffffffffff16856040518463ffffffff1660e01b815260040161020a939291906104f6565b602060405180830381600087803b15801561022457600080fd5b505af1158015610238573d6000803e3d6000fd5b505050506040513d601f19601f8201168201806040525081019061025c919061038f565b507f5deda500cf2f51e0ae5ba5537859f938dadea1f0d406c57f7a1ad89ea5f2434833838342604051610292949392919061052d565b60405180910390a15050565b60008054906101000a900473ffffffffffffffffffffffffffffffffffffffff1681565b600160009054906101000a900473ffffffffffffffffffffffffffffffffffffffff1681565b60006102fb6102f6846105e5565b6105b4565b90508281526020810184848401111561031357600080fd5b61031e84828561069d565b509392505050565b6000815190506103358161071f565b92915050565b600082601f83011261034c57600080fd5b813561035c8482602086016102e8565b91505092915050565b60008135905061037481610736565b92915050565b60008151905061038981610736565b92915050565b6000602082840312156103a157600080fd5b60006103af84828501610326565b91505092915050565b6000602082840312156103ca57600080fd5b60006103d88482850161037a565b91505092915050565b600080604083850312156103f457600080fd5b600061040285828601610365565b925050602083013567ffffffffffffffff81111561041f57600080fd5b61042b8582860161033b565b9150509250929050565b61043e81610631565b82525050565b61044d81610679565b82525050565b600061045e82610615565b6104688185610620565b93506104788185602086016106ac565b6104818161070e565b840191505092915050565b6000610499601583610620565b91507f546f6b656e2062616c616e6365206973206c6f772e00000000000000000000006000830152602082019050919050565b6104d58161066f565b82525050565b60006020820190506104f06000830184610435565b92915050565b600060608201905061050b6000830186610435565b6105186020830185610435565b61052560408301846104cc565b949350505050565b60006080820190506105426000830187610435565b61054f60208301866104cc565b81810360408301526105618185610453565b905061057060608301846104cc565b95945050505050565b600060208201905061058e6000830184610444565b92915050565b600060208201905081810360008301526105ad8161048c565b9050919050565b6000604051905081810181811067ffffffffffffffff821117156105db576105da6106df565b5b8060405250919050565b600067ffffffffffffffff821115610600576105ff6106df565b5b601f19601f8301169050602081019050919050565b600081519050919050565b600082825260208201905092915050565b600061063c8261064f565b9050919050565b60008115159050919050565b600073ffffffffffffffffffffffffffffffffffffffff82169050919050565b6000819050919050565b60006106848261068b565b9050919050565b60006106968261064f565b9050919050565b82818337600083830152505050565b60005b838110156106ca5780820151818401526020810190506106af565b838111156106d9576000848401525b50505050565b7f4e487b7100000000000000000000000000000000000000000000000000000000600052604160045260246000fd5b6000601f19601f8301169050919050565b61072881610643565b811461073357600080fd5b50565b61073f8161066f565b811461074a57600080fd5b5056fea2646970667358221220d5b66cb36326d338d023cf8fb01cebdb2d27057d767e97ae2d2730573e07942f64736f6c63430008000033",
  "immutableReferences": {},
  "source": "pragma solidity ^0.8.0;\nimport \"@openzeppelin/contracts/token/ERC20/IERC20.sol\";\n\ncontract Payment{\n    \n    address public owner;\n    IERC20 public daiToken;\n    \n    constructor(address _owner, address _daiToken) {\n        owner = _owner;\n        daiToken = IERC20(_daiToken);\n    }\n    \n    // Event\n    \n    event PaymentDone(\n        address customer,\n        uint amount,\n        string paymentId,\n        uint date\n    );\n    \n    // Public payment function\n    \n    function pay(uint amount, string memory paymentID) public {\n        require(daiToken.balanceOf(msg.sender) >= amount, 'Token balance is low.');\n        daiToken.transferFrom(msg.sender, owner, amount);\n        emit PaymentDone(msg.sender, amount, paymentID, block.timestamp);\n    }\n}\n",
  "sourcePath": "/home/debjit/Projects/Blockchain/Token Store/Token-Store/contracts/Payment.sol",
  "compiler": {
    "name": "solc",
    "version": "0.8.0+commit.c7dfd78e.Emscripten.clang"
  },
  "schemaVersion": "3.4.0",
  "updatedAt": "2021-11-05T15:18:31.935Z",
  "networkType": "ethereum",
  "devdoc": {
    "kind": "dev",
    "methods": {},
    "version": 1
  },
  "userdoc": {
    "kind": "user",
    "methods": {},
    "version": 1
  }
}