{
  "contractName": "Payment",
  "abi": [
    {
      "inputs": [
        {
          "internalType": "address",
          "name": "_owner",
          "type": "address"
        },
        {
          "internalType": "address",
          "name": "_daiToken",
          "type": "address"
        }
      ],
      "stateMutability": "nonpayable",
      "type": "constructor"
    },
    {
      "anonymous": false,
      "inputs": [
        {
          "indexed": false,
          "internalType": "address",
          "name": "customer",
          "type": "address"
        },
        {
          "indexed": false,
          "internalType": "uint256",
          "name": "amount",
          "type": "uint256"
        },
        {
          "indexed": false,
          "internalType": "string",
          "name": "paymentId",
          "type": "string"
        },
        {
          "indexed": false,
          "internalType": "uint256",
          "name": "date",
          "type": "uint256"
        }
      ],
      "name": "PaymentDone",
      "type": "event"
    },
    {
      "inputs": [],
      "name": "daiToken",
      "outputs": [
        {
          "internalType": "contract IERC20",
          "name": "",
          "type": "address"
        }
      ],
      "stateMutability": "view",
      "type": "function",
      "constant": true
    },
    {
      "inputs": [],
      "name": "owner",
      "outputs": [
        {
          "internalType": "address",
          "name": "",
          "type": "address"
        }
      ],
      "stateMutability": "view",
      "type": "function",
      "constant": true
    },
    {
      "inputs": [
        {
          "internalType": "uint256",
          "name": "amount",
          "type": "uint256"
        },
        {
          "internalType": "string",
          "name": "paymentID",
          "type": "string"
        }
      ],
      "name": "pay",
      "outputs": [],
      "stateMutability": "nonpayable",
      "type": "function"
    }
  ],
  "bytecode": "0x608060405234801561001057600080fd5b5060405161075b38038061075b833981810160405281019061003291906100cf565b816000806101000a81548173ffffffffffffffffffffffffffffffffffffffff021916908373ffffffffffffffffffffffffffffffffffffffff16021790555080600160006101000a81548173ffffffffffffffffffffffffffffffffffffffff021916908373ffffffffffffffffffffffffffffffffffffffff1602179055505050610154565b6000815190506100c98161013d565b92915050565b600080604083850312156100e257600080fd5b60006100f0858286016100ba565b9250506020610101858286016100ba565b9150509250929050565b60006101168261011d565b9050919050565b600073ffffffffffffffffffffffffffffffffffffffff82169050919050565b6101468161010b565b811461015157600080fd5b50565b6105f8806101636000396000f3fe608060405234801561001057600080fd5b50600436106100415760003560e01c8063154fbbc4146100465780638da5cb5b14610062578063be22f54614610080575b600080fd5b610060600480360381019061005b91906102b6565b61009e565b005b61006a6101b1565b6040516100779190610370565b60405180910390f35b6100886101d5565b604051610095919061040e565b60405180910390f35b600160009054906101000a900473ffffffffffffffffffffffffffffffffffffffff1673ffffffffffffffffffffffffffffffffffffffff166323b872dd3360008054906101000a900473ffffffffffffffffffffffffffffffffffffffff16856040518463ffffffff1660e01b815260040161011d9392919061038b565b602060405180830381600087803b15801561013757600080fd5b505af115801561014b573d6000803e3d6000fd5b505050506040513d601f19601f8201168201806040525081019061016f919061028d565b507f5deda500cf2f51e0ae5ba5537859f938dadea1f0d406c57f7a1ad89ea5f24348338383426040516101a594939291906103c2565b60405180910390a15050565b60008054906101000a900473ffffffffffffffffffffffffffffffffffffffff1681565b600160009054906101000a900473ffffffffffffffffffffffffffffffffffffffff1681565b600061020e6102098461045a565b610429565b90508281526020810184848401111561022657600080fd5b610231848285610512565b509392505050565b60008151905061024881610594565b92915050565b600082601f83011261025f57600080fd5b813561026f8482602086016101fb565b91505092915050565b600081359050610287816105ab565b92915050565b60006020828403121561029f57600080fd5b60006102ad84828501610239565b91505092915050565b600080604083850312156102c957600080fd5b60006102d785828601610278565b925050602083013567ffffffffffffffff8111156102f457600080fd5b6103008582860161024e565b9150509250929050565b610313816104a6565b82525050565b610322816104ee565b82525050565b60006103338261048a565b61033d8185610495565b935061034d818560208601610521565b61035681610583565b840191505092915050565b61036a816104e4565b82525050565b6000602082019050610385600083018461030a565b92915050565b60006060820190506103a0600083018661030a565b6103ad602083018561030a565b6103ba6040830184610361565b949350505050565b60006080820190506103d7600083018761030a565b6103e46020830186610361565b81810360408301526103f68185610328565b90506104056060830184610361565b95945050505050565b60006020820190506104236000830184610319565b92915050565b6000604051905081810181811067ffffffffffffffff821117156104505761044f610554565b5b8060405250919050565b600067ffffffffffffffff82111561047557610474610554565b5b601f19601f8301169050602081019050919050565b600081519050919050565b600082825260208201905092915050565b60006104b1826104c4565b9050919050565b60008115159050919050565b600073ffffffffffffffffffffffffffffffffffffffff82169050919050565b6000819050919050565b60006104f982610500565b9050919050565b600061050b826104c4565b9050919050565b82818337600083830152505050565b60005b8381101561053f578082015181840152602081019050610524565b8381111561054e576000848401525b50505050565b7f4e487b7100000000000000000000000000000000000000000000000000000000600052604160045260246000fd5b6000601f19601f8301169050919050565b61059d816104b8565b81146105a857600080fd5b50565b6105b4816104e4565b81146105bf57600080fd5b5056fea26469706673582212207edae046866b029e8e3eba2ea0b3a5df973d59e32e4d3c8ab069dca4f8e7938a64736f6c63430008000033",
  "immutableReferences": {},
  "source": "pragma solidity ^0.8.0;\nimport \"@openzeppelin/contracts/token/ERC20/IERC20.sol\";\n\ncontract Payment{\n    \n    address public owner;\n    IERC20 public daiToken;\n    \n    constructor(address _owner, address _daiToken) {\n        owner = _owner;\n        daiToken = IERC20(_daiToken);\n    }\n    \n    // Event\n    \n    event PaymentDone(\n        address customer,\n        uint amount,\n        string paymentId,\n        uint date\n    );\n    \n    // Public payment function\n    \n    function pay(uint amount, string memory paymentID) public {\n        daiToken.transferFrom(msg.sender, owner, amount);\n        emit PaymentDone(msg.sender, amount, paymentID, block.timestamp);\n    }\n}\n",
  "sourcePath": "/home/debjit/Projects/Blockchain/Token Store/Token-Store/contracts/Payment.sol",
  "compiler": {
    "name": "solc",
    "version": "0.8.0+commit.c7dfd78e.Emscripten.clang"
  },
  "schemaVersion": "3.4.0",
  "updatedAt": "2021-11-05T12:19:12.515Z",
  "networkType": "ethereum",
  "devdoc": {
    "kind": "dev",
    "methods": {},
    "version": 1
  },
  "userdoc": {
    "kind": "user",
    "methods": {},
    "version": 1
  }
}